:020000040800F2
:100000005805002001010008D1040008510400082F
:10001000CD040008490100082B070008000000007B
:10002000000000000000000000000000F5040008CF
:100030004D01000800000000D3040008E10500089D
:100040001B0100081B0100081B0100081B01000820
:100050001B0100081B0100081B0100081B01000810
:100060001B0100081B0100081B0100081B01000800
:100070001B0100081B0100081B0100081B010008F0
:100080001B0100081B0100081B0100081B010008E0
:100090001B0100081B0100081B0100081B010008D0
:1000A0001B0100081B0100081B0100081B010008C0
:1000B0001B0100081B0100081B0100081B010008B0
:1000C0001B0100081B0100081B0100081B010008A0
:1000D0001B010008450600081B0100081B01000861
:1000E0001B0100081B0100081B010008DFF80CD0F1
:1000F00000F018F8004800474D0700085805002098
:100100000648804706480047FEE7FEE7FEE7FEE7B1
:10011000FEE7FEE7FEE7FEE7FEE7FEE7E50500088F
:10012000ED000008064C074D06E0E06840F00103D2
:1001300094E8070098471034AC42F6D3FFF7DAFF93
:10014000DC070008FC07000800BFFEE770472DE948
:10015000F04102460025002600200023002400274D
:1001600091F803C00CF00F0591F803C00CF0100CCF
:10017000BCF1000F03D091F802C04CEA050591F8DC
:1001800000C0BCF1000F31D0146800202BE04FF00C
:10019000010C0CFA00F3B1F800C00CEA03069E4211
:1001A00020D183004FF00F0C0CFA03F7BC4305FA83
:1001B00003FC4CEA040491F803C0BCF1280F06D1FB
:1001C0004FF0010C0CFA00FCC2F814C00AE091F8E0
:1001D00003C0BCF1480F05D14FF0010C0CFA00FC34
:1001E000C2F810C0401C0828D1D31460B1F800C078
:1001F000BCF1FF0F34DD546800202EE000F1080C44
:100200004FF0010808FA0CF3B1F800C00CEA03063D
:100210009E4221D183004FF00F0C0CFA03F7BC4330
:1002200005FA03FC4CEA040491F803C0BCF1280F62
:1002300005D100F1080C08FA0CF8C2F8148091F806
:1002400003C0BCF1480F07D100F1080C4FF00108C2
:1002500008FA0CF8C2F81080401C0828CED354606D
:10026000BDE8F0810161704700B5012011490860C7
:100270001149C1F898010F49083108600F49C1F8C8
:100280008001002000F09EF8202000F09BF818204C
:1002900000F098F8012000F095F8A92000F092F8FD
:1002A000082000F08FF8032000F08CF800F0A8F888
:1002B00000BD000094012142000021420080214243
:1002C00030B50346012A18D1002013E00024174D51
:1002D0002C6003F080041CB10124154D2C6002E059
:1002E0000024134D2C605C06230E01240F4D2C605E
:1002F000441CE0B28842E9DB16E0002012E0002452
:100300000A4D2C6003F001041CB10124084D2C603F
:1003100002E00024064D2C605B100124034D2C608C
:10032000441CE0B28842EADB30BD00009C0121425F
:1003300080812142F0B505460C461646802D1DDA17
:1003400000201F49086001220321A020FFF7B8FF09
:100350006906080E01220721FFF7B2FF002707E018
:10036000207800220821FFF7ABFF641C781CC7B27D
:10037000B742F5DB0120124908601FE00020104958
:10038000091D086001220321A020FFF799FF6906DB
:10039000080E01220721FFF793FF002707E02078CE
:1003A00000220821FFF78CFF641C781CC7B2B742FB
:1003B000F5DB01200249091D086000BFF0BD000007
:1003C0009401214210B5044600200B4908600B49F6
:1003D000C1F89801012203218020FFF771FF01225B
:1003E00009212046FFF76CFF0120034908600349FB
:1003F000C1F8980110BD0000940121420000214283
:1004000010B50020104908601049C1F89801012278
:100410000321A020FFF754FF012207210020FFF74E
:100420004FFF002406E0002208211046FFF748FF96
:10043000601CC4B2202CF6DB01200349086003498C
:10044000C1F8980110BD0000940121420000214232
:1004500000BFFEE708B501210C2000F03BF810209A
:100460008DF8030003208DF802002020ADF8000075
:1004700069461448FFF76BFE20211248FFF7F2FE91
:100480004020ADF8000069460E48FFF760FE4021AD
:100490000C48FFF7E7FE8020ADF8000069460948E8
:1004A000FFF755FE80210748FFF7DCFE0120ADF87D
:1004B000000069460448FFF74AFE01210248FFF7A1
:1004C000D1FE08BD00080140000C014000BFFEE75E
:1004D0007047704729B1064A92690243044B9A61FA
:1004E00004E0034A92698243014B9A61704700001D
:1004F00000100240704710B500F002F810BD000077
:100500000CB50020019000903348006840F4803022
:100510003149086000BF3048006800F400300090A6
:100520000198401C0190009818B90198B0F5A06F8F
:10053000F1D12948006800F4003010B1012000908A
:1005400001E0002000900098012843D12348006872
:1005500040F01000214908600846006820F00300C0
:1005600008600846006840F0020008601A484068C9
:10057000194948600846406848600846406840F4A9
:10058000806048600846406820F47C104860084657
:10059000406840F4E81048600846006840F0807009
:1005A000086000BF0C48006800F000700028F9D017
:1005B0000948406820F00300074948600846406841
:1005C00040F00200486000BF0348406800F00C00A3
:1005D0000828F9D10CBD00000010024000200240A4
:1005E0007047000010B51348006840F00100114941
:1005F000086008464068104908400E4948600846AF
:1006000000680E4908400B4908600846006820F45D
:10061000802008600846406820F4FE0048604FF4DF
:100620001F008860FFF767FF4FF000600449086013
:1006300010BD0000001002400000FFF8FFFFF6FEB2
:1006400008ED00E010B540F225511D4800F03EF8DD
:1006500010B31B4800F064F8C4B21A48008800F4D4
:100660000040C8B91748008800F4804060B10A2CE7
:1006700003D000201349088020E01248008840F48D
:1006800000401049088019E00D2C06D10D48008863
:1006900040F480400B49088010E00A480088C0F30D
:1006A0000D0009490C5407480088401C0549088082
:1006B00008460088C72801DD0020088010BD000022
:1006C00000380140040000204C00002070B50246B4
:1006D000002400230025002040F66A16B14200D114
:1006E00000BFC1F3421501F01F03012606FA03F310
:1006F000012D02D19689334006E0022D02D1168ADF
:10070000334001E0968A33400C12012606FA04F4C5
:100710001688344013B10CB1012000E0002070BDF8
:1007200001468888C0F30800704700BFFEE702E07A
:1007300008C8121F08C1002AFAD17047704700206C
:1007400001E001C1121F002AFBD17047FFF782FEB2
:10075000FFF78AFDFFF754FE00201B4908700CE0EC
:100760001A4819490978405C1949174A127888547F
:1007700015480078401C1449087013480078202858
:10078000EEDB0020134908700DE010491148007895
:100790002030085C10490F4A127888540D480078C0
:1007A000401C0C4908700B4800782028EDDB202203
:1007B00007490020FFF7BEFD202207498020FFF7F0
:1007C000B9FD00BFFEE70000460000200600002043
:1007D000140100204700002034010020FC0700081D
:1007E000000000204C0000002E0700084808000808
:1007F0004C0000200C0500003E070008000000002F
:1008000000000000000000000001000000000000E7
:1008100000010000000000000001000000000000D6
:1008200000010000000000000001000000000000C6
:1008300000010000000000000001010101010101B0
:0808400001FF0000FF000000B1
:04000005080000ED02
:00000001FF
