:020000040800F2
:10000000B80400200101000815060008E9040008F2
:100010006505000849010008E70A00080000000023
:10002000000000000000000000000000950700082C
:100030004D010008000000009D060008A908000806
:100040001B0100081B0100081B0100081B01000820
:100050001B0100081B0100081B0100081B01000810
:100060001B0100081B0100081B0100081B01000800
:100070001B0100081B0100081B0100081B010008F0
:100080001B0100081B0100081B0100081B010008E0
:100090001B0100081B0100081B0100081B010008D0
:1000A0001B0100081B0100081B0100081B010008C0
:1000B0001B0100081B0100081B0100081B010008B0
:1000C0001B0100081B0100081B0100081B010008A0
:1000D0001B0100080D0900081B0100081B01000896
:1000E0001B0100081B0100081B010008DFF80CD0F1
:1000F00000F018F8004800474D0B0008B804002035
:100100000648804706480047FEE7FEE7FEE7FEE7B1
:10011000FEE7FEE7FEE7FEE7FEE7FEE7AD080008C4
:10012000ED000008064C074D06E0E06840F00103D2
:1001300094E8070098471034AC42F6D3FFF7DAFF93
:100140006C0B00088C0B000800BFFEE77047000036
:1001500010B500F0A1F900201C4908700DE01C4901
:100160001A480078401C085C1A49184A12788854CA
:1001700016480078401C154908701448007820285B
:10018000EDDB0020144908700DE011491248007899
:100190002130085C1149104A127888540E480078C2
:1001A000401C0D4908700C4800782028EDDB202207
:1001B0000849002000F00AF920220849802000F0B8
:1001C00005F900200649087010BD00002C00002031
:1001D00030000020710000202D0000209100002040
:1001E0002E0000202DE9F0410246002500260020C7
:1001F00000230024002791F803C00CF00F0591F8AC
:1002000003C00CF0100CBCF1000F03D091F802C039
:100210004CEA050591F800C0BCF1000F31D014681C
:1002200000202BE04FF0010C0CFA00F3B1F800C0F5
:100230000CEA03069E4220D183004FF00F0C0CFA0B
:1002400003F7BC4305FA03FC4CEA040491F803C02D
:10025000BCF1280F06D14FF0010C0CFA00FCC2F8DB
:1002600014C00AE091F803C0BCF1480F05D14FF06B
:10027000010C0CFA00FCC2F810C0401C0828D1D3B5
:100280001460B1F800C0BCF1FF0F34DD54680020E9
:100290002EE000F1080C4FF0010808FA0CF3B1F859
:1002A00000C00CEA03069E4221D183004FF00F0CE0
:1002B0000CFA03F7BC4305FA03FC4CEA040491F87A
:1002C00003C0BCF1280F05D100F1080C08FA0CF8A6
:1002D000C2F8148091F803C0BCF1480F07D100F1B7
:1002E000080C4FF0010808FA0CF8C2F81080401C06
:1002F0000828CED35460BDE8F0810161704700004A
:1003000000B50120114908601149C1F898010F4951
:10031000083108600F49C1F88001002000F09EF804
:10032000202000F09BF8182000F098F8012000F041
:1003300095F8AD2000F092F8082000F08FF8032027
:1003400000F08CF800F0A8F800BD000094012142F4
:10035000000021420080214230B50346012A18D115
:10036000002013E00024174D2C6003F080041CB122
:100370000124154D2C6002E00024134D2C605C0616
:10038000230E01240F4D2C60441CE0B28842E9DBAF
:1003900016E0002012E000240A4D2C6003F0010456
:1003A0001CB10124084D2C6002E00024064D2C6095
:1003B0005B100124034D2C60441CE0B28842EADB50
:1003C00030BD00009C01214280812142F0B50546EC
:1003D0000C461646802D1DDA00201F4908600122B8
:1003E0000321A020FFF7B8FF6906080E01220721AC
:1003F000FFF7B2FF002707E0207800220821FFF76F
:10040000ABFF641C781CC7B2B742F5DB0120124970
:1004100008601FE000201049091D08600122032127
:10042000A020FFF799FF6906080E01220721FFF7B8
:1004300093FF002707E0207800220821FFF78CFFB8
:10044000641C781CC7B2B742F5DB01200249091DC4
:10045000086000BFF0BD00009401214210B50446C1
:1004600000200B4908600B49C1F8980101220321C3
:100470008020FFF771FF012209212046FFF76CFF62
:100480000120034908600349C1F8980110BD00002C
:10049000940121420000214210B50020104908605B
:1004A0001049C1F8980101220321A020FFF754FF51
:1004B000012207210020FFF74FFF002406E0002261
:1004C00008211046FFF748FF601CC4B2202CF6DB61
:1004D0000120034908600349C1F8980110BD0000DC
:1004E000940121420000214200BFFEE708B501212E
:1004F0000C2000F0D5F810208DF8030003208DF8B3
:1005000002002020ADF8000069461448FFF76AFE9B
:1005100020211248FFF7F1FE4020ADF800006946A7
:100520000E48FFF75FFE40210C48FFF7E6FE8020F3
:10053000ADF8000069460948FFF754FE80210748DE
:10054000FFF7DBFE0120ADF8000069460448FFF725
:1005500049FE01210248FFF7D0FE08BD0008014016
:10056000000C014000BFFEE700B587B00121042068
:1005700000F096F80121880300F092F818208DF819
:100580001B004FF40070ADF8180001208DF81A0020
:1005900006A91E48FFF726FE04208DF81B00000266
:1005A000ADF8180001208DF81A0006A91748FFF7CA
:1005B00019FE4FF4E13002900020ADF814000C2039
:1005C000ADF812000020ADF81000ADF80E00ADF847
:1005D0000C0002A90E4800F015FA01210C4800F0A9
:1005E000B5F9012240F22551094800F0E5F925202E
:1005F0008DF8040001208DF807008DF805008DF8B6
:10060000060001A800F008F807B000BD000801408E
:10061000003801407047000070B5002100230F2210
:10062000C47804B3154C246804F4E064C4F5E064B1
:10063000210AC1F10403CA40447804FA03F1847822
:100640001440214309010E4C0678A155047804F0AA
:100650001F050124AC4005786D11AD0005F1E025C2
:10066000C5F8004109E0047804F01F050124AC40FE
:10067000044D0678761145F8264070BD0CED00E07B
:1006800000E400E080E100E002490143024A116019
:10069000704700000000FA050CED00E07047000014
:1006A00029B1064A92690243044B9A6104E0034A65
:1006B00092698243014B9A6170470000001002402A
:1006C00030B500210022002400232D4D6D6805F077
:1006D0000C0121B1042905D0082923D105E0294DB9
:1006E000056022E0274D05601FE0254D6D6805F48B
:1006F0007012234D6D6805F48034022505EB92429B
:100700001CB9214D554305600BE01D4D6D6805F486
:1007100000351DB11C4D5543056002E0194D554390
:10072000056002E0174D056000BF00BF144D6D6805
:1007300005F0F0010909154D6B5C0568DD40456069
:100740000F4D6D6805F4E061090A104D6B5C45685A
:10075000DD4085600A4D6D6805F46051C90A0B4D96
:100760006B5C4568DD40C560054D6D6805F4404132
:10077000890B074D6B5CC568B5FBF3F5056130BDB2
:100780000010024000127A0000093D001400002011
:1007900024000020704710B500F002F810BD0000E2
:1007A0000CB50020019000903348006840F4803080
:1007B0003149086000BF3048006800F40030009004
:1007C0000198401C0190009818B90198B0F5A06FED
:1007D000F1D12948006800F4003010B101200090E8
:1007E00001E0002000900098012843D123480068D0
:1007F00040F01000214908600846006820F003001E
:1008000008600846006840F0020008601A48406826
:10081000194948600846406848600846406840F406
:10082000806048600846406820F47C1048600846B4
:10083000406840F4E81048600846006840F0807066
:10084000086000BF0C48006800F000700028F9D074
:100850000948406820F0030007494860084640689E
:1008600040F00200486000BF0348406800F00C0000
:100870000828F9D10CBD0000001002400020024001
:10088000042808D14FF0E021096941F004014FF03C
:10089000E022116107E04FF0E021096921F0040135
:1008A0004FF0E022116170477047000010B5134807
:1008B000006840F00100114908600846406810498E
:1008C00008400E494860084600680E4908400B4938
:1008D00008600846006820F48020086008464068E8
:1008E00020F4FE0048604FF41F008860FFF753FFBC
:1008F0004FF000600449086010BD00000010024085
:100900000000FFF8FFFFF6FE08ED00E010B540F232
:1009100025510B4800F026F888B1094800F0DEF8B0
:100920000849094A1278885407480078401C06494B
:10093000087008460078412801DBFFF709FC10BD6C
:1009400000380140300000202E00002021B18289B3
:1009500042F40052828104E082894DF6FF731A400E
:100960008281704770B502460024002300250020D4
:1009700040F66A16B14200D100BFC1F3421501F042
:100980001F03012606FA03F3012D02D19689334095
:1009900006E0022D02D1168A334001E0968A3340E8
:1009A0000C12012606FA04F41688344013B10CB177
:1009B000012000E0002070BDF0B5034600240026B1
:1009C0000025002040F66A17B94200D100BF184642
:1009D000C1F3421401F01F06012707FA06F5012CA6
:1009E00001D10C3004E0022C01D1103000E01430B1
:1009F0001AB107682F43076002E00768AF4307603A
:100A0000F0BD00002DE9F04786B005460E460024F3
:100A1000A24600BFA1460027B08900B100BF2F4603
:100A20002C8A4CF6FF700440F08804432C82AC8979
:100A30004EF6F3100440B0883189084371890843A9
:100A40000443AC81AC8A4FF6FF400440B0890443B4
:100A5000AC8201A8FFF734FE1F48874202D1DDF8BF
:100A600010A001E0DDF80CA0A88900F4004040B11E
:100A70000AEBCA0000EB0A1031684900B0FBF1F83C
:100A800007E00AEBCA0000EB0A1031688900B0FBEE
:100A9000F1F86420B8FBF0F004012009642101FBA7
:100AA0001089A88900F4004040B1322000EBC90051
:100AB000B0FBF1F000F00700044308E0322000EB47
:100AC00009106421B0FBF1F000F00F0004432C8109
:100AD00006B0BDE8F0870000003801400146888874
:100AE000C0F30800704700BFFEE702E008C8121F0D
:100AF00008C1002AFAD170477047002001E001C107
:100B0000121F002AFBD1704710B56FF00400FFF7E9
:100B1000B7FE0A4800680A49B0FBF1F009490870BD
:100B20000846007800EB4001C1EBC0104FF6FF71A2
:100B300001EAC0000449088010BD00000000002048
:100B400000127A00280000202A000020FFF7CEFCC7
:100B5000FFF7DAFF4FF4A060FFF796FDFFF704FD03
:100B6000FFF7CEFBFFF798FC00BFFEE78C0B0008F9
:100B70000000002030000000EA0A0008BC0B00085A
:100B80003000002088040000FA0A000800A24A048D
:100B9000000000000000000001020304060708092D
:100BA0000000000001020304010203040607080913
:0C0BB00002040608000000000000000025
:04000005080000ED02
:00000001FF
